S01100006861636B6174686F6E2E7372656362
S11300000C943F010C9465010C9465010C946501FA
S11300100C9465010C9465010C9465010C946501C4
S11300200C9465010C9465010C9465010C946501B4
S11300300C9465010C9465010C9465010C946501A4
S11300400C9465010C9465010C9465010C94650194
S11300500C94BC010C9465010C9465010C9465012D
S11300600C9465010C9465010C9465010C94650174
S11300700C9465010C9465010C9465010C94650164
S11300800C9465010C9465010C9465010C94650154
S11300900C9465010C9465010C9465010C94650144
S11300A00C9465010C9465010C9465010C94650134
S11300B00C9465010C9465010C9465010C94650124
S11300C00C9465010C9465010C9465010C94650114
S11300D00C9465010C9465010C9465010C94650104
S11300E00C9465010C9465010C94D8020C94650180
S11300F00C9465010C9465010C9465010C946501E4
S11301000C9465010C9465010C9465010C946501D3
S11301100C9465010C9465010C9465010C946501C3
S11301200C9465010C9465010C9465010C946501B3
S11301300C9465010C9465010C9465010C946501A3
S11301400C9465010C9465010C9465010C94650193
S11301500C9465010C9465010C9465010C94650183
S11301600C9465010C9465010C9465010C94650173
S11301700C9465010C9465010C9465010C94650163
S11301800C9465010C9465010C9465010C94650153
S11301900C9465010C9465010C9465010C94650143
S11301A00C9465010C9465010C9465010C94650133
S11301B00C9465010C9465010C9465010C94650123
S11301C00C9465010C9465010C9465010C94650113
S11301D00C9465010C9465010C9465010C94650103
S11301E00C9465010C9465010C9465010C946501F3
S11301F00C9465010C9465010C946501FF010D02DA
S11302004F024F02340242024F024F024F024F028A
S11302104F024F024F024F024F024F02F8010602F3
S113022014021B0222024F0249024F024F024F02E4
S11302304F024F024F024F024F024F024F024F0232
S11302403B024F024F024F0229020C940D020C9400
S113025022020C9414020C943B020C941B020C9486
S113026029020C94F8010C9449020C944F020C944A
S113027034020C9406020C9442020C94FF011124E3
S11302801FBECFEFCDBFDFE3DEBF00E00CBF18BE63
S113029019BE1ABE1BBE12E2A0E0B0E2E0E3F7E032
S11302A000E00BBF02C007900D92A438B107D9F744
S11302B01BBE22E2A4E8B2E201C01D92AB38B20731
S11302C0E1F70E9450020C9496030C9400008F9363
S11302D082E0809350008091510081FFFCCF88ED33
S11302E08093340081E08093400088ED8093340053
S11302F080E0809341008F910895E0E0F3E088E08E
S1130300808382E281831282808181608083089568
S11303100F931F93E0E0F1E020812064208325E027
S1130320208B21E0238B20E032E0248B358B808FDF
S1130330092E000CAA0BBB0B092F1A2F2B2F3327C6
S1130340018FCD01AA27BB27828F648F758F168EEC
S113035081898823ECF3E0E0F1E0168A89E5828B59
S113036080898062808B80898068808B80818068AE
S113037080831F910F9108951F920F920FB60F92D1
S1130380112408B60F9218BE8F9381E080938422C3
S11303908F910F9008BE0F900FBE0F901F9018956D
S11303A0E0E4F6E080E885838183089587E0809324
S11303B0A20078940895E82F10920008A0E4B8E011
S11303C090962D913C919197283B3B40C8F381E056
S11303D0809300088E2F90E0FC01F397E732F1053B
S11303E008F05DC08827E250FF4F8F4F0C948D03B7
S11303F087E790E08093260890932708089581E783
S113040090E0809326089093270808958AE690E068
S11304108093260890932708089584E690E08093BB
S113042026089093270808958FE590E08093260886
S113043090932708089589E590E080932608909387
S11304402708089584E590E0809326089093270870
S113045008958FE490E080932608909327081092E3
S113046060081092610808958BE490E08093260858
S113047090932708089587E490E08093260890934A
S11304802708089583E490E0809326089093270832
S113049008958FE390E080932608909327080895A9
S11304A0E4E8F0E224E832E280819181880F991F28
S11304B0880F991F81939193E217F307A9F70E947C
S11304C067010E94D00160E086E594E00E943E034B
S11304D00E947D016AE173E084E890E20E94880151
S11304E06CE482E50E9455030E941E030E943303BC
S11304F00E942C030E94D601C9E8D2E213E0809145
S113050000208230F1F4109300208881853519F49D
S113051089818737B1F08881873519F489818537D6
S113052081F08881873D19F48981873551F088816C
S1130530873519F48981873D21F08881873D09F445
S11305408981809184228823D1F21092842280911F
S11305508622811127C080918722909188229C0154
S11305602F5F3F4F2093872230938822FC01EF5F57
S1130570FF4D808180938522809185220E94DB013A
S113058080918722909188229C012F5F3F4F209376
S1130590872230938822FC01EF5FFF4D80818053D6
S11305A08093862280918622815080938622A7CFD1
S11305B01F920F920FB60F92112408B60F9218BE15
S11305C009B60F9219BE0BB60F921BBE2F933F9321
S11305D04F935F936F937F938F939F93AF93BF9347
S11305E0EF93FF930E944D03853D19F41092002070
S11305F00EC090910020923050F4E091002091E0E0
S11306009E0F90930020F0E0E757FD4D8083FF910B
S1130610EF91BF91AF919F918F917F916F915F9176
S11306204F913F912F910F900BBE0F9009BE0F90E9
S113063008BE0F900FBE0F901F901895E0E0F8E0F1
S113064087E490E086A397A380EC8093800181E007
S1130650808310A211A20895E0E4F8E010A211A290
S113066087E080830895E0E4F8E080E49FE186A3D6
S113067097A381E0868310A211A2089524E0209319
S11306808206E0EAFAE086836295607F962B978380
S113069083E0858388E184830895E0EAFAE0818138
S11306A08823ECF78091A00A0895982F9F7D9235B6
S11306B0C9F46F7D6C3431F4E0EAFAE0838180613F
S11306C0838308956D3431F4E0EAFAE08381806233
S11306D083830895683401F5E0EAFAE08381806356
S11306E0838308958437C1F46F7D6C3431F4E0EA78
S11306F0FAE083818160838308956D3431F4E0EA04
S1130700FAE08381826083830895683429F4E0EAFF
S1130710FAE08381836083830895EE0FFF1F881FAF
S11307208BBF0790F691E02D1BBE1994F894FFCF70
S11307300545314431433144314531453145314535
S113074031443144314531443143344531443143FA
S113075031443145314531453244314431443245E7
S113076031473147324531443143314431453145D4
S113077031453145314431443145314431433445C7
S113078031443143314431453145314532443144BA
S113079031443245314731473245314431433144A4
S11307A03145314531453145314431443145314498
S11307B0314334000008320864089608C808FA086F
S11307C02C095E098F09C009F109220A520A820A1A
S11307D0B10AE00A0F0B3D0B6B0B980BC50BF10B29
S11307E01C0C470C710C9A0CC30CEB0C120D390D3C
S11307F05F0D830DA70DCA0DED0D0E0E2E0E4E0EC0
S11308006C0E8A0EA60EC10EDC0EF50E0D0F240F13
S11308103A0F4F0F630F760F870F980FA70FB50F7F
S1130820C20FCD0FD80FE10FE90FF00FF50FF90F3D
S1130830FD0FFE0FFF0FFE0FFD0FF90FF50FF00F69
S1130840E90FE10FD80FCD0FC20FB50FA70F980F07
S1130850870F760F630F4F0F3A0F240F0D0FF50E0E
S1130860DC0EC10EA60E8A0E6C0E4E0E2E0E0E0E51
S1130870ED0DCA0DA70D830D5F0D390D120DEB0C97
S1130880C30C9A0C710C470C1C0CF10BC50B980B88
S11308906B0B3D0B0F0BE00AB10A820A520A220AC3
S11308A0F109C0098F095E092C09FA08C8089608DD
S11308B0640832080008CD079B0769073707050756
S11308C0D306A10670063F060E06DD05AD057D05BF
S11308D04E051F05F004C204940467043A040E0490
S11308E0E303B8038E0365033C031403ED02C6025D
S11308F0A0027C02580235021202F101D101B101B9
S11309009301750159013E0123010A01F200DB0044
S1130910C500B0009C0089007800670058004A00B8
S11309203D00320027001E0016000F000A000600DA
S11309300200010000000100020006000A000F008E
S113094016001E00270032003D004A0058006700D0
S1130950780089009C00B000C500DB00F2000A01A9
S113096023013E01590175019301B101D101F10146
S11309701202350258027C02A002C602ED021403E0
S11309803C0365038E03B803E3030E043A046704CF
S11309909404C204F0041F054E057D05AD05DD0574
S11309A00E063F067006A106D3060507370769073A
S10709B09B07CD07C9
S9030000FC
