S01100006861636B6174686F6E2E7372656362
S11300000C94FE000C940E010C940E010C940E0141
S11300100C940E010C940E010C940E010C940E0120
S11300200C940E010C940E010C940E010C940E0110
S11300300C940E010C940E010C940E010C940E0100
S11300400C940E010C940E010C940E010C940E01F0
S11300500C940E010C940E010C940E010C940E01E0
S11300600C940E010C940E010C940E010C940E01D0
S11300700C940E010C940E010C940E010C940E01C0
S11300800C940E010C940E010C940E010C940E01B0
S11300900C940E010C940E010C940E010C940E01A0
S11300A00C940E010C940E010C940E010C940E0190
S11300B00C940E010C940E010C940E010C940E0180
S11300C00C940E010C940E010C940E010C940E0170
S11300D00C940E010C940E010C940E010C940E0160
S11300E00C940E010C940E010C940E010C940E0150
S11300F00C940E010C940E010C940E010C940E0140
S11301000C940E010C940E010C940E010C940E012F
S11301100C940E010C940E010C940E010C940E011F
S11301200C940E010C940E010C940E010C940E010F
S11301300C940E010C940E010C940E010C940E01FF
S11301400C940E010C940E010C940E010C940E01EF
S11301500C940E010C940E010C940E010C940E01DF
S11301600C940E010C940E010C940E010C940E01CF
S11301700C940E010C940E010C940E010C940E01BF
S11301800C940E010C940E010C940E010C940E01AF
S11301900C940E010C940E010C940E010C940E019F
S11301A00C940E010C940E010C940E010C940E018F
S11301B00C940E010C940E010C940E010C940E017F
S11301C00C940E010C940E010C940E010C940E016F
S11301D00C940E010C940E010C940E010C940E015F
S11301E00C940E010C940E010C940E010C940E014F
S11301F00C940E010C940E010C940E0111241FBEDC
S1130200CFEFCDBFDFE3DEBF00E00CBF18BE19BEE9
S11302101ABE1BBE0E9438010C9453010C940000BA
S1130220CF93DF93CDB7DEB780EE96E027E3FC01F2
S1130230208380EE96E023E3FC01248380E297E0B0
S11302402FEFFC01208380E494E021E0FC01208373
S113025080E494E020E037E3FC01268B378B80E4D4
S113026094E021E2FC01248B0000DF91CF910895FA
S1130270CF93DF9300D01F92CDB7DEB70E94100159
S113028080E090E0A7E3B0E089839A83AB83BC83EA
S113029089819A81AB81BC8125E50BB6ABBFFC019A
S10D02A020830BBEEDCFF894FFCFCE
S9030000FC
