S01100006861636B6174686F6E2E7372656362
S11300000C942B010C9451010C9451010C9451014A
S11300100C9451010C9451010C9451010C94510114
S11300200C9451010C9451010C9451010C94510104
S11300300C9451010C9451010C9451010C945101F4
S11300400C9451010C9451010C9451010C945101E4
S11300500C94A8010C9451010C9451010C9451017D
S11300600C9451010C9451010C9451010C945101C4
S11300700C9451010C9451010C9451010C945101B4
S11300800C9451010C9451010C9451010C945101A4
S11300900C9451010C9451010C9451010C94510194
S11300A00C9451010C9451010C9451010C94510184
S11300B00C9451010C9451010C9451010C94510174
S11300C00C9451010C9451010C9451010C94510164
S11300D00C9451010C9451010C9451010C94510154
S11300E00C9451010C9451010C94FB020C94510199
S11300F00C9451010C9451010C9451010C94510134
S11301000C9451010C9451010C9451010C94510123
S11301100C9451010C9451010C9451010C94510113
S11301200C9451010C9451010C9451010C94510103
S11301300C9451010C9451010C9451010C945101F3
S11301400C9451010C9451010C9451010C945101E3
S11301500C9451010C9451010C9451010C945101D3
S11301600C9451010C9451010C9451010C945101C3
S11301700C9451010C9451010C9451010C945101B3
S11301800C9451010C9451010C9451010C945101A3
S11301900C9451010C9451010C9451010C94510193
S11301A00C9451010C9451010C9451010C94510183
S11301B00C9451010C9451010C9451010C94510173
S11301C00C9451010C9451010C9451010C94510163
S11301D00C9451010C9451010C9451010C94510153
S11301E00C9451010C9451010C9451010C94510143
S11301F00C9451010C9451010C94510114021602F7
S1130200160216021602160216021602160216022A
S1130210160216021602160216021602160216021A
S11302201602160206020D02E301EA01F101F801C9
S1130230FF010C9416020C94FF010C9406020C941A
S11302400D020C9414020C94E3010C94F8010C9428
S1130250F1010C94EA0111241FBECFEFCDBFDFE3FF
S1130260DEBF00E00CBF18BE19BE1ABE1BBE13E2EF
S1130270A0E0B0E2E6E7F7E000E00BBF02C00790C1
S11302800D92A838B107D9F71BBE23E2A8E8B3E260
S113029001C01D92AF38B207E1F70E9417020C9417
S11302A0B9030C9400008F9382E0809350008091F6
S11302B0510081FFFCCF88ED8093340081E080936E
S11302C0400088ED8093340080E0809341008F915A
S11302D00895E0E0F3E088E0808382E28183128283
S11302E080818160808308950F931F93E0E0F1E0A3
S11302F020812064208325E0208B21E0238B20E0D3
S113030032E0248B358B808F092E000CAA0BBB0B9B
S1130310092F1A2F2B2F3327018FCD01AA27BB2793
S1130320828F648F758F168E81898823ECF3E0E0C9
S1130330F1E0168A89E5828B80898062808B8089CE
S11303408068808B8081806880831F910F910895DD
S11303501F920F920FB60F92112408B60F9218BE77
S11303608F9381E0809388238F910F9008BE0F9024
S11303700FBE0F901F901895E0E4F6E080E88583A7
S11303808183089587E08093A20078940895E82FEC
S113039010920008A0E4B8E090962D913C919197BA
S11303A0283B3B40C8F381E0809300088E2F90E007
S11303B0FC01BD97EB31F105C8F58827E250FF4FEA
S11303C08F4F0C94B00388E790E0809326089093B5
S11303D0270808958CE690E08093260890932708D8
S11303E0089580E690E08093260890932708089566
S11303F08BE590E08093260890932708089581E583
S113040090E08093260890932708089587E490E06D
S11304108093260890932708089580E490E08093C1
S11304202608909327080895109200080895E7E895
S1130430F1E227E833E280819181880F991F880FC8
S1130440991F81939193E217F307A9F70E9453012F
S11304500E94BC0160E086E594E00E9461030E9472
S113046069016AE173E087E891E20E9474016CE437
S113047082E50E9478030E9441030E9456030E9471
S11304804F030E94C20113E80F2EF4E08F2EF1E215
S11304909F2EF02D0F2EF3E07F2EF02DCDE8D3E22A
S11304A00F2EF1E0AF2EF0E2BF2EF02D0F2EFBE762
S11304B03F2EF02D0F2EF9E8CF2EF0E2DF2EF02D97
S11304C00F2EF5E54F2EF02D0F2EF4E3EF2EF0E274
S11304D0FF2EF02D0F2EF3E85F2EF02D80910020DB
S11304E0823009F042C0709200208881853589F4F9
S11304F08981873771F410928B2310928C23109288
S11305008A23152D0F2EF4E08F2EF1E29F2EF02D6D
S11305102CC08881873561F48981853749F410922C
S11305208B2310928C2310928A23142D47011DC013
S11305308881873D61F48981873549F410928B2342
S113054010928C2310928A23132D46010EC08881A9
S1130550873559F48981873D41F410928B23109299
S11305608C2310928A2313E34501809188238823E6
S113057009F4B4CF1092882380918A23811135C065
S113058080918B2390918C239C012F5F3F4F20936C
S11305908B2330938C23F401E80FF91F808180931F
S11305A08923809189230E94C70180918B23909194
S11305B08C239C012F5F3F4F20938B2330938C23FC
S11305C0F401E80FF91F8081805380938A232091DE
S11305D08B2330918C23812F90E0019728173907C2
S11305E024F010928B2310928C2380918A238150C3
S11305F080938A2373CF1F920F920FB60F92112408
S113060008B60F9218BE09B60F9219BE0BB60F9218
S11306101BBE2F933F934F935F936F937F938F935F
S11306209F93AF93BF93EF93FF930E947003853D15
S113063019F4109200200EC090910020923050F4D2
S1130640E091002091E09E0F90930020F0E0E357AA
S1130650FC4D8083FF91EF91BF91AF919F918F915A
S11306607F916F915F914F913F912F910F900BBEAE
S11306700F9009BE0F9008BE0F900FBE0F901F90F1
S11306801895E0E0F8E087E490E086A397A380EC77
S11306908093800181E0808310A211A20895E0E498
S11306A0F8E010A211A287E080830895E0E4F8E066
S11306B080E49FE186A397A381E0868310A211A220
S11306C0089524E020938206E0EAFAE086836295A6
S11306D0607F962B978383E0858388E184830895E4
S11306E0E0EAFAE081818823ECF78091A00A08957A
S11306F0982F9F7D9235C9F46F7D6C3431F4E0EA14
S1130700FAE083818061838308956D3431F4E0EAF3
S1130710FAE08381806283830895683401F5E0EA16
S1130720FAE083818063838308958437C1F46F7D05
S11307306C3431F4E0EAFAE08381816083830895C4
S11307406D3431F4E0EAFAE08381826083830895B2
S1130750683429F4E0EAFAE08381836083830895AE
S1130760EE0FFF1F881F8BBF0790F691E02D1BBE75
S10907701994F894FFCF78
S113077605433243314431433146314532433243F2
S113078631443143314731463243324331423141B8
S113079631463145314531423242314131463147A4
S11307A631463300433143314731473141314131D9
S11307B6473146314631453145314431443143327E
S11307C64731473146314631453145314432473167
S11307D6473146314631453145314432433143315F
S11307E6473147314131413147324631463145314E
S11307F64531443144314332004431423141314779
S11308063144334431443142314131473145334532
S11308163145314331423141314633463142314229
S1130826314231413142344431423141314731441C
S11308363344314431423141314731453345314501
S11308463142314231413142314231423142314207
S11308563142314231413147332D31423142314205
S113086632423142314232423142314731413142E0
S1130876332D31004531443143314431453145311D
S113088645314531443144314531443143344531B0
S113089644314331443145314531453244314431A3
S11308A6443245314731473245314431433144318D
S11308B64531453145314531443144314531443181
S11308C64334453144314331443145314531453270
S11308D6443144314432453147314732453144315C
S11308E64331443145314531453145314431443153
S11308F6453144314334000008320864089608C878
S113090608FA082C095E098F09C009F109220A525E
S11309160A820AB10AE00A0F0B3D0B6B0B980BC552
S11309260BF10B1C0C470C710C9A0CC30CEB0C1240
S11309360D390D5F0D830DA70DCA0DED0D0E0E2E8F
S11309460E4E0E6C0E8A0EA60EC10EDC0EF50E0DA4
S11309560F240F3A0F4F0F630F760F870F980FA7C9
S11309660FB50FC20FCD0FD80FE10FE90FF00FF53A
S11309760FF90FFD0FFE0FFF0FFE0FFD0FF90FF519
S11309860FF00FE90FE10FD80FCD0FC20FB50FA768
S11309960F980F870F760F630F4F0F3A0F240F0D23
S11309A60FF50EDC0EC10EA60E8A0E6C0E4E0E2E22
S11309B60E0E0EED0DCA0DA70D830D5F0D390D122A
S11309C60DEB0CC30C9A0C710C470C1C0CF10BC5EB
S11309D60B980B6B0B3D0B0F0BE00AB10A820A5204
S11309E60A220AF109C0098F095E092C09FA08C806
S11309F6089608640832080008CD079B076907377C
S1130A06070507D306A10670063F060E06DD05ADEB
S1130A16057D054E051F05F004C204940467043AD7
S1130A26040E04E303B8038E0365033C031403EDC9
S1130A3602C602A0027C02580235021202F101D15A
S1130A4601B1019301750159013E0123010A01F225
S1130A5600DB00C500B0009C0089007800670058E0
S1130A66004A003D00320027001E0016000F000A4F
S1130A760006000200010000000100020006000A50
S1130A86000F0016001E00270032003D004A0058E1
S1130A96006700780089009C00B000C500DB00F206
S1130AA6000A0123013E01590175019301B101D1E7
S1130AB601F1011202350258027C02A002C602EDBF
S1130AC60214033C0365038E03B803E3030E043ADE
S1130AD60467049404C204F0041F054E057D05ADA5
S1130AE605DD050E063F067006A106D30605073783
S10B0AF60769079B07CD070007
S9030000FC
