:100000000C943F010C9465010C9465010C946501FE
:100010000C9465010C9465010C9465010C946501C8
:100020000C9465010C9465010C9465010C946501B8
:100030000C9465010C9465010C9465010C946501A8
:100040000C9465010C9465010C9465010C94650198
:100050000C94BC010C9465010C9465010C94650131
:100060000C9465010C9465010C9465010C94650178
:100070000C9465010C9465010C9465010C94650168
:100080000C9465010C9465010C9465010C94650158
:100090000C9465010C9465010C9465010C94650148
:1000A0000C9465010C9465010C9465010C94650138
:1000B0000C9465010C9465010C9465010C94650128
:1000C0000C9465010C9465010C9465010C94650118
:1000D0000C9465010C9465010C9465010C94650108
:1000E0000C9465010C9465010C9465010C946501F8
:1000F0000C9465010C9465010C9465010C946501E8
:100100000C9465010C9465010C9465010C946501D7
:100110000C9465010C9465010C9465010C946501C7
:100120000C9465010C9465010C9465010C946501B7
:100130000C9465010C9465010C9465010C946501A7
:100140000C9465010C9465010C9465010C94650197
:100150000C9465010C9465010C9465010C94650187
:100160000C9465010C9465010C9465010C94650177
:100170000C9465010C9465010C9465010C94650167
:100180000C9465010C9465010C9465010C94650157
:100190000C9465010C9465010C9465010C94650147
:1001A0000C9465010C9465010C9465010C94650137
:1001B0000C9465010C9465010C9465010C94650127
:1001C0000C9465010C9465010C9465010C94650117
:1001D0000C9465010C9465010C9465010C94650107
:1001E0000C9465010C9465010C9465010C946501F7
:1001F0000C9465010C9465010C946501FF010D02DE
:100200004F024F02340242024F024F024F024F028E
:100210004F024F024F024F024F024F02F8010602F7
:1002200014021B0222024F0249024F024F024F02E8
:100230004F024F024F024F024F024F024F024F0236
:100240003B024F024F024F0229020C940D020C9404
:1002500022020C9414020C943B020C941B020C948A
:1002600029020C94F8010C9449020C944F020C944E
:1002700034020C9406020C9442020C94FF011124E7
:100280001FBECFEFCDBFDFE3DEBF00E00CBF18BE67
:1002900019BE1ABE1BBE12E2A0E0B0E2EAE4F6E02C
:1002A00000E00BBF02C007900D92A438B107D9F748
:1002B0001BBE22E2A4E8B2E201C01D92A938B20737
:1002C000E1F70E9450020C9423030C9400008F93DA
:1002D00082E0809350008091510081FFFCCF88ED37
:1002E0008093340081E08093400088ED8093340057
:1002F00080E0809341008F910895E0E0F3E088E092
:10030000808382E28183128280818160808308956C
:100310000F931F93E0E0F1E020812064208325E02B
:10032000208B21E0238B20E032E0248B358B808FE3
:10033000092E000CAA0BBB0B092F1A2F2B2F3327CA
:10034000018FCD01AA27BB27828F648F758F168EF0
:1003500081898823ECF3E0E0F1E0168A89E5828B5D
:1003600080898062808B80898068808B80818068B2
:1003700080831F910F9108951F920F920FB60F92D5
:10038000112408B60F9218BE8F9381E080938422C7
:100390008F910F9008BE0F900FBE0F901F90189571
:1003A000E0E4F6E080E885838183089587E0809328
:1003B000A20078940895E82F10920008A0E4B8E015
:1003C00090962D913C919197283B3B40C8F381E05A
:1003D000809300088E2F90E0FC01F397E732F1053F
:1003E00008F05DC08827E250FF4F8F4F0C941A032E
:1003F00087E790E08093260890932708089581E787
:1004000090E0809326089093270808958AE690E06C
:100410008093260890932708089584E690E08093BF
:1004200026089093270808958FE590E0809326088A
:1004300090932708089589E590E08093260890938B
:100440002708089584E590E0809326089093270874
:1004500008958FE490E080932608909327081092E7
:1004600060081092610808958BE490E0809326085C
:1004700090932708089587E490E08093260890934E
:100480002708089583E490E0809326089093270836
:1004900008958FE390E080932608909327080895AD
:1004A000E3E8F0E223E832E280819181880F991F2E
:1004B000880F991F81939193E217F307A9F70E9480
:1004C00067010E94D00160E080E090E00E94D302CA
:1004D0000E947D016AE173E083E890E20E94880156
:1004E0006CE482E50E94E2020E94B3020E94C8020C
:1004F0000E94C1020E94D601809184228823E1F3E8
:100500001092842280918622811127C080918722B7
:10051000909188229C012F5F3F4F20938722309338
:100520008822FC01E050F04E8081809385228091EA
:1005300085220E94DB0180918722909188229C0174
:100540002F5F3F4F2093872230938822FC01E05099
:10055000F04E808180538093862280918622815044
:1005600080938622C9CFE0E0F8E087E490E086A39C
:1005700097A380EC8093800181E0808310A211A278
:100580000895E0E4F8E010A211A287E080830895C6
:10059000E0E4F8E080E49FE186A397A381E086830E
:1005A00010A211A2089524E020938206E0EAFAE066
:1005B00086836295607F962B978383E0858388E1AD
:1005C00084830895982F9F7D9235C9F46F7D6C3494
:1005D00031F4E0EAFAE083818061838308956D3429
:1005E00031F4E0EAFAE0838180628383089568341D
:1005F00001F5E0EAFAE0838180638383089584371C
:10060000C1F46F7D6C3431F4E0EAFAE083818160FB
:10061000838308956D3431F4E0EAFAE083818260E7
:1006200083830895683429F4E0EAFAE083818360E3
:1006300083830895EE0FFF1F881F8BBF0790F691ED
:0A064000E02D1BBE1994F894FFCFC3
:10064A0045314431433144314531453145314531F4
:10065A0044314431453144314334453144314331E5
:10066A0044314531453145324431443144324531D2
:10067A0047314732453144314331443145314531BF
:10068A0045314531443144314531443143344531B2
:10069A0044314331443145314531453244314431A5
:1006AA00443245314731473245314431433144318F
:1006BA004531453145314531443144314531443183
:1006CA004334000008320864089608C808FA082C5F
:1006DA00095E098F09C009F109220A520A820AB180
:1006EA000AE00A0F0B3D0B6B0B980BC50BF10B1CA9
:1006FA000C470C710C9A0CC30CEB0C120D390D5FE4
:10070A000D830DA70DCA0DED0D0E0E2E0E4E0E6C9D
:10071A000E8A0EA60EC10EDC0EF50E0D0F240F3A30
:10072A000F4F0F630F760F870F980FA70FB50FC2E2
:10073A000FCD0FD80FE10FE90FF00FF50FF90FFDED
:10074A000FFE0FFF0FFE0FFD0FF90FF50FF00FE968
:10075A000FE10FD80FCD0FC20FB50FA70F980F8754
:10076A000F760F630F4F0F3A0F240F0D0FF50EDCA4
:10077A000EC10EA60E8A0E6C0E4E0E2E0E0E0EED2B
:10078A000DCA0DA70D830D5F0D390D120DEB0CC3AC
:10079A000C9A0C710C470C1C0CF10BC50B980B6BCB
:1007AA000B3D0B0F0BE00AB10A820A520A220AF128
:1007BA0009C0098F095E092C09FA08C80896086455
:1007CA000832080008CD079B07690737070507D3D2
:1007DA0006A10670063F060E06DD05AD057D054E2F
:1007EA00051F05F004C204940467043A040E04E3E6
:1007FA0003B8038E0365033C031403ED02C602A08B
:10080A00027C02580235021202F101D101B10193B0
:10081A0001750159013E0123010A01F200DB00C5FD
:10082A0000B0009C0089007800670058004A003D2B
:10083A0000320027001E0016000F000A0006000200
:10084A0000010000000100020006000A000F001665
:10085A00001E00270032003D004A00580067007859
:10086A000089009C00B000C500DB00F2000A0123E9
:10087A00013E01590175019301B101D101F1011242
:10088A0002350258027C02A002C602ED0214033CA1
:10089A000365038E03B803E3030E043A0467049462
:1008AA0004C204F0041F054E057D05AD05DD050EE5
:1008BA00063F067006A106D3060507370769079B98
:0408CA0007CD07004F
:00000001FF
